{
  "abi": [
    {
      "type": "function",
      "name": "cancelListing",
      "inputs": [
        {
          "name": "nftAddress",
          "type": "address",
          "internalType": "address"
        },
        {
          "name": "tokenId",
          "type": "uint256",
          "internalType": "uint256"
        }
      ],
      "outputs": [],
      "stateMutability": "nonpayable"
    },
    {
      "type": "function",
      "name": "createListing",
      "inputs": [
        {
          "name": "nftAddress",
          "type": "address",
          "internalType": "address"
        },
        {
          "name": "tokenId",
          "type": "uint256",
          "internalType": "uint256"
        },
        {
          "name": "price",
          "type": "uint256",
          "internalType": "uint256"
        }
      ],
      "outputs": [],
      "stateMutability": "nonpayable"
    },
    {
      "type": "function",
      "name": "listings",
      "inputs": [
        {
          "name": "",
          "type": "address",
          "internalType": "address"
        },
        {
          "name": "",
          "type": "uint256",
          "internalType": "uint256"
        }
      ],
      "outputs": [
        {
          "name": "price",
          "type": "uint256",
          "internalType": "uint256"
        },
        {
          "name": "seller",
          "type": "address",
          "internalType": "address"
        }
      ],
      "stateMutability": "view"
    },
    {
      "type": "function",
      "name": "purchaseListing",
      "inputs": [
        {
          "name": "nftAddress",
          "type": "address",
          "internalType": "address"
        },
        {
          "name": "tokenId",
          "type": "uint256",
          "internalType": "uint256"
        }
      ],
      "outputs": [],
      "stateMutability": "payable"
    },
    {
      "type": "function",
      "name": "updateListing",
      "inputs": [
        {
          "name": "nftAddress",
          "type": "address",
          "internalType": "address"
        },
        {
          "name": "tokenId",
          "type": "uint256",
          "internalType": "uint256"
        },
        {
          "name": "newPrice",
          "type": "uint256",
          "internalType": "uint256"
        }
      ],
      "outputs": [],
      "stateMutability": "nonpayable"
    },
    {
      "type": "event",
      "name": "ListingCancelled",
      "inputs": [
        {
          "name": "nftAddress",
          "type": "address",
          "indexed": false,
          "internalType": "address"
        },
        {
          "name": "tokenId",
          "type": "uint256",
          "indexed": false,
          "internalType": "uint256"
        },
        {
          "name": "seller",
          "type": "address",
          "indexed": false,
          "internalType": "address"
        }
      ],
      "anonymous": false
    },
    {
      "type": "event",
      "name": "ListingCreated",
      "inputs": [
        {
          "name": "nftAddress",
          "type": "address",
          "indexed": false,
          "internalType": "address"
        },
        {
          "name": "tokenId",
          "type": "uint256",
          "indexed": false,
          "internalType": "uint256"
        },
        {
          "name": "price",
          "type": "uint256",
          "indexed": false,
          "internalType": "uint256"
        },
        {
          "name": "seller",
          "type": "address",
          "indexed": false,
          "internalType": "address"
        }
      ],
      "anonymous": false
    },
    {
      "type": "event",
      "name": "ListingPurchased",
      "inputs": [
        {
          "name": "nftAddress",
          "type": "address",
          "indexed": false,
          "internalType": "address"
        },
        {
          "name": "tokenId",
          "type": "uint256",
          "indexed": false,
          "internalType": "uint256"
        },
        {
          "name": "seller",
          "type": "address",
          "indexed": false,
          "internalType": "address"
        },
        {
          "name": "buyer",
          "type": "address",
          "indexed": false,
          "internalType": "address"
        }
      ],
      "anonymous": false
    },
    {
      "type": "event",
      "name": "ListingUpdated",
      "inputs": [
        {
          "name": "nftAddress",
          "type": "address",
          "indexed": false,
          "internalType": "address"
        },
        {
          "name": "tokenId",
          "type": "uint256",
          "indexed": false,
          "internalType": "uint256"
        },
        {
          "name": "newPrice",
          "type": "uint256",
          "indexed": false,
          "internalType": "uint256"
        },
        {
          "name": "seller",
          "type": "address",
          "indexed": false,
          "internalType": "address"
        }
      ],
      "anonymous": false
    }
  ],
  "bytecode": {
    "object": "0x6080604052348015600f57600080fd5b50610b018061001f6000396000f3fe6080604052600436106100495760003560e01c806207df301461004e57806324780c56146100b4578063a7fc91b9146100d6578063b2ddee06146100e9578063f772adf114610109575b600080fd5b34801561005a57600080fd5b506100936100693660046109cd565b6000602081815292815260408082209093529081522080546001909101546001600160a01b031682565b604080519283526001600160a01b0390911660208301520160405180910390f35b3480156100c057600080fd5b506100d46100cf3660046109f9565b610129565b005b6100d46100e43660046109cd565b610475565b3480156100f557600080fd5b506100d46101043660046109cd565b6106db565b34801561011557600080fd5b506100d46101243660046109f9565b610822565b6001600160a01b03831660009081526020818152604080832085845290915290205483908390156101985760405162461bcd60e51b8152602060048201526014602482015273135492d50e88105b1c9958591e481b1a5cdd195960621b60448201526064015b60405180910390fd5b6040516331a9108f60e11b8152600481018590528590859033906001600160a01b03841690636352211e90602401602060405180830381865afa1580156101e3573d6000803e3d6000fd5b505050506040513d601f19601f820116820180604052508101906102079190610a2e565b6001600160a01b03161461022d5760405162461bcd60e51b815260040161018f90610a52565b84600081116102785760405162461bcd60e51b815260206004820152601760248201527604d524b543a205072696365206d757374206265203e203604c1b604482015260640161018f565b60405163e985e9c560e01b815233600482015230602482015288906001600160a01b0382169063e985e9c590604401602060405180830381865afa1580156102c4573d6000803e3d6000fd5b505050506040513d601f19601f820116820180604052508101906102e89190610a7f565b80610364575060405163020604bf60e21b81526004810189905230906001600160a01b0383169063081812fc90602401602060405180830381865afa158015610335573d6000803e3d6000fd5b505050506040513d601f19601f820116820180604052508101906103599190610a2e565b6001600160a01b0316145b6103b05760405162461bcd60e51b815260206004820152601960248201527f4d524b543a204e6f20617070726f76616c20666f72204e465400000000000000604482015260640161018f565b6040805180820182528881523360208083018281526001600160a01b038e811660009081528084528681208f825290935291859020935184555160019093018054939091166001600160a01b03199093169290921790915590517fdc801191e0c92935648f61c8e3d0cd8eac1d060269ddb920487d02ab0be69e7d91610462918c918c918c91906001600160a01b03948516815260208101939093526040830191909152909116606082015260800190565b60405180910390a1505050505050505050565b6001600160a01b038216600090815260208181526040808320848452909152902054829082906104b75760405162461bcd60e51b815260040161018f90610aa1565b6001600160a01b0380851660009081526020818152604080832087845282529182902082518084019093528054808452600190910154909316908201529034146105435760405162461bcd60e51b815260206004820152601c60248201527f4d524b543a20496e636f72726563742045544820737570706c69656400000000604482015260640161018f565b6001600160a01b038581166000818152602081815260408083208984528252808320928355600190920180546001600160a01b03191690558401519051632142170760e11b81529216600483015233602483015260448201869052906342842e0e90606401600060405180830381600087803b1580156105c257600080fd5b505af11580156105d6573d6000803e3d6000fd5b50505050600081602001516001600160a01b03163460405160006040518083038185875af1925050503d806000811461062b576040519150601f19603f3d011682016040523d82523d6000602084013e610630565b606091505b505090508061067a5760405162461bcd60e51b815260206004820152601660248201527508cc2d2d8cac840e8de40e8e4c2dce6cccae440cae8d60531b604482015260640161018f565b602080830151604080516001600160a01b03808b16825293810189905292909116908201523360608201527fab7369fca6913c40e2bf7144b586a1a0e894bd32f5f9e74128cd89fb54f7bf94906080015b60405180910390a1505050505050565b6001600160a01b0382166000908152602081815260408083208484529091529020548290829061071d5760405162461bcd60e51b815260040161018f90610aa1565b6040516331a9108f60e11b8152600481018490528490849033906001600160a01b03841690636352211e90602401602060405180830381865afa158015610768573d6000803e3d6000fd5b505050506040513d601f19601f8201168201806040525081019061078c9190610a2e565b6001600160a01b0316146107b25760405162461bcd60e51b815260040161018f90610a52565b6001600160a01b0386166000818152602081815260408083208984528252808320928355600190920180546001600160a01b03191690558151928352820187905233908201527f8526cb6d400b8a551983c99e6d6fb1775b7a0deeb5d1e39d3ee65bc59e5eac27906060016106cb565b6001600160a01b038316600090815260208181526040808320858452909152902054839083906108645760405162461bcd60e51b815260040161018f90610aa1565b6040516331a9108f60e11b8152600481018590528590859033906001600160a01b03841690636352211e90602401602060405180830381865afa1580156108af573d6000803e3d6000fd5b505050506040513d601f19601f820116820180604052508101906108d39190610a2e565b6001600160a01b0316146108f95760405162461bcd60e51b815260040161018f90610a52565b84600081116109445760405162461bcd60e51b815260206004820152601760248201527604d524b543a205072696365206d757374206265203e203604c1b604482015260640161018f565b6001600160a01b0388166000818152602081815260408083208b84528252918290208990558151928352820189905281018790523360608201527f3199bfdff711ec1ab8ab8449dc3b8d3fa30a59861a734a9d26f7b1a38162df759060800160405180910390a15050505050505050565b6001600160a01b03811681146109ca57600080fd5b50565b600080604083850312156109e057600080fd5b82356109eb816109b5565b946020939093013593505050565b600080600060608486031215610a0e57600080fd5b8335610a19816109b5565b95602085013595506040909401359392505050565b600060208284031215610a4057600080fd5b8151610a4b816109b5565b9392505050565b60208082526013908201527226a925aa1d102737ba103a34329037bbb732b960691b604082015260600190565b600060208284031215610a9157600080fd5b81518015158114610a4b57600080fd5b60208082526010908201526f135492d50e88139bdd081b1a5cdd195960821b60408201526060019056fea264697066735822122080881a2eca5c96fcfa31431f21b48e58986c9ef8aa79ac2229698d945fd3d14064736f6c63430008190033",
    "linkReferences": {}
  },
  "methodIdentifiers": {
    "cancelListing(address,uint256)": "b2ddee06",
    "createListing(address,uint256,uint256)": "24780c56",
    "listings(address,uint256)": "0007df30",
    "purchaseListing(address,uint256)": "a7fc91b9",
    "updateListing(address,uint256,uint256)": "f772adf1"
  },
  "id": 27
}